:100000000C945D000C9485000C9485000C94850084
:100010000C9485000C9485000C9485000C9485004C
:100020000C9485000C9485000C9485000C9485003C
:100030000C9485000C9485000C9485000C9485002C
:100040000C9446020C9485000C9485000C94850059
:100050000C9485000C9485000C9485000C9485000C
:100060000C9490020C94850000000008000201002E
:100070000003040700000000000000000000000072
:10008000250028002B0000000000240027002A0083
:10009000040404040404040402020202020203032E
:1000A0000303030301020408102040800102040836
:1000B0001020010204081020430411241FBECFEFBA
:1000C000D8E0DEBFCDBF11E0A0E0B1E0E8EBF8E0A2
:1000D00002C005900D92A231B107D9F721E0A2E14B
:1000E000B1E001C01D92A33CB207E1F710E0CDE5FD
:1000F000D0E004C02197FE010E945404CC35D10702
:10010000C9F70E94AF030C945A040C9400000895A0
:10011000CF93DF93AC01E091B301F091B40130973C
:10012000F1F09091B2018091B1019817C0F090E088
:10013000292F30E02617370754F4D901AE5EBE4FA1
:10014000240F351FE90128812C939F5FF1CF109276
:10015000B2016093B101CB01DF91CF910994DF919E
:10016000CF91089590E0FC01E859FF4F2491FC01E4
:10017000EC55FF4F3491FC01E057FF4FE491EE2323
:10018000C9F0222339F0233001F1A8F4213019F10C
:10019000223029F1F0E0EE0FFF1FE458FF4FA59148
:1001A000B4918FB7F894EC91611126C030953E233D
:1001B0003C938FBF08952730A9F02830C9F0243030
:1001C00049F7809180008F7D03C0809180008F77F8
:1001D00080938000DFCF84B58F7784BDDBCF84B57B
:1001E0008F7DFBCF8091B0008F778093B000D2CF0E
:1001F0008091B0008F7DF9CF3E2BDACF3FB7F894D6
:100200008091A7019091A801A091A901B091AA01A4
:1002100026B5A89B05C02F3F19F00196A11DB11D61
:100220003FBFBA2FA92F982F8827BC01CD01620F9D
:10023000711D811D911D42E0660F771F881F991F58
:100240004A95D1F708958F929F92AF92BF92CF9225
:10025000DF92EF92FF920E94FE004B015C0188EC5E
:10026000C82ED12CE12CF12C0E94FE0068197909CE
:100270008A099B09683E734081059105A8F321E036
:10028000C21AD108E108F10888EE880E83E0981EB2
:10029000A11CB11CC114D104E104F10429F7FF90A1
:1002A000EF90DF90CF90BF90AF909F908F90089588
:1002B00020915801260F3327331F21323105ECF4EA
:1002C00020917C01FC0190E080E0243069F082E024
:1002D0000895A09158012191AC01485C5E4FA40F94
:1002E000B52FB11D2C930196861798F38091580174
:1002F000680F6093580180E0089581E0089510929E
:100300007C0181E080937E0110927D0161E082E1B9
:100310000E94B20061E083E10E94B200E9EBF0E0EC
:1003200080818E7F808380818D7F808388E480932D
:10033000B80085E48093BC0008950895E091B2016F
:100340008091B101E81730F4F0E0EE5EFE4F80815D
:1003500090E008958FEF9FEF08959091B201809102
:10036000B1012FEF3FEF981748F4E92FF0E0EE5E70
:10037000FE4F208130E09F5F9093B201C901089544
:1003800085EB91E00E94AD019093C2018093C10181
:1003900008958091B1019091B201891B990B089544
:1003A000CF93DF93CB01EA01642F0E945801CE0165
:1003B000DF91CF910895CF93DF931F92CDB7DEB732
:1003C000698361E0CE0101960E94580181E090E0CE
:1003D0000F90DF91CF91089590E080E00895CF9342
:1003E000DF9385ED8093BC008091340190913501BD
:1003F000A0913601B09137010796A11DB11D23E0F0
:10040000B695A795979587952A95D1F72091BC0029
:1004100024FD03C010927C0136C0409134015091FC
:1004200035016091360170913701452B462B472BE2
:1004300069F30097A105B10541F025E32A95F1F78D
:1004400000000197A109B109E1CF8091330191E04A
:10045000909332018823B9F0C091B800D091BA00CE
:100460008091BC008A7B8093BC0060E082E10E94A6
:10047000B20060E083E10E94B2000E947F01D0934D
:10048000BA00C093B800DF91CF9108951F920F92E8
:100490000FB60F9211242F933F938F939F93AF9397
:1004A000BF938091A3019091A401A091A501B09167
:1004B000A6013091A20123E0230F2D3758F50196B4
:1004C000A11DB11D2093A2018093A3019093A401CB
:1004D000A093A501B093A6018091A7019091A801D6
:1004E000A091A901B091AA010196A11DB11D80930F
:1004F000A7019093A801A093A901B093AA01BF916D
:10050000AF919F918F913F912F910F900FBE0F90C0
:100510001F90189526E8230F0296A11DB11DD2CF7A
:100520001F920F920FB60F9211242F933F934F9368
:100530005F936F937F938F939F93AF93BF93EF934B
:10054000FF938091B900887F803609F44AC0F0F5A6
:10055000883209F4A7C018F5803109F49BC0B8F4BB
:10056000882309F4F9C0883009F494C0FF91EF9111
:10057000BF91AF919F918F917F916F915F914F91BB
:100580003F912F910F900FBE0F901F9018958831BB
:1005900009F488C0803251F780937B0114C0803405
:1005A00009F49DC040F48033B9F38833F9F68093A1
:1005B0007B0185ECB0C0803509F485C0883509F42D
:1005C00096C0883499F60E94EF01D0CF883909F49B
:1005D0008CC038F5883729F050F4883611F0803710
:1005E00029F683E080937C0110927A0157C0883805
:1005F00009F47BC0803919F0803809F0B7CF8091B9
:100600007A01803208F071C0E0917A0181E08E0FAA
:1006100080937A018091BB00F0E0E65AFE4F808320
:100620003DC0803B39F0E0F4803A09F479C0883A63
:1006300009F09CCF84E080937C01109259011092C4
:100640005801E091AD01F091AE01099580915801FA
:1006500081110FC081E0809358011092380109C0C8
:10066000803C09F4A6CF883C09F4A3CF883B09F06D
:100670007DCFE091590181E08E0F80935901F0E028
:10068000E85CFE4F80818093BB009091590180917E
:10069000580129C08091A1018093BB0085EC809313
:1006A000BC0064CF9091A00180919F01981758F5EC
:1006B000E091A00181E08E0F8093A001F0E0E1586D
:1006C000FE4F8081E9CFE091A00181E08E0F809301
:1006D000A0018091BB00F0E0E158FE4F8083909133
:1006E000A00180919F019817C8F285E8D8CFE091CA
:1006F000A00181E08E0F8093A0018091BB00F0E00B
:10070000E158FE4F808380917E0181115CCF81E0B2
:1007100080937D0184EA8093BC0010927C0126CFF7
:1007200085EC8093BC0010927C0180917A0180322C
:1007300030F4E0917A01F0E0E65AFE4F10826091C9
:100740007A0170E0E091AB01F091AC018AE591E0B3
:10075000099510927A010ACF10927B0134CF7894D8
:1007600084B5826084BD84B5816084BD85B58260B6
:1007700085BD85B5816085BD80916E008160809367
:100780006E001092810080918100826080938100D0
:1007900080918100816080938100809180008160E0
:1007A000809380008091B10084608093B10080913B
:1007B000B00081608093B00080917A008460809363
:1007C0007A0080917A00826080937A0080917A002A
:1007D000816080937A0080917A00806880937A00AB
:1007E0001092C100E1EBF0E02491EDE9F0E084919A
:1007F000882399F090E0880F991FFC01EA57FF4F7A
:10080000A591B491FC01E458FF4F859194918FB765
:10081000F894EC91E22BEC938FBF1092B2011092FE
:10082000B1011092B0011092AF010E947F0187E8E0
:1008300090E09093AE018093AD0188E890E09093B2
:10084000AC018093AB0182E08093BA0080EC91E030
:100850009093B4018093B301C0E0D0E08091C101D6
:100860009091C20161E08130910519F0892B31F43A
:1008700060E08DE00E94B2000E942301209771F396
:100880000E940000EBCFE5EBF1E01382128288EECC
:1008900093E0A0E0B0E084839583A683B78384E0EF
:1008A00091E0918380830895EE0FFF1F0590F491EE
:0808B000E02D0994F894FFCF3C
:1008B80000000000DB01D001EC019D01C901AD0180
:0208C8009E018F
:00000001FF
