:100000000C945D000C9485000C9485000C94850084
:100010000C9485000C9485000C9485000C9485004C
:100020000C9485000C9485000C9485000C9485003C
:100030000C9485000C9485000C9485000C9485002C
:100040000C9490020C9485000C9400030C94DA023A
:100050000C9485000C9485000C9485000C9485000C
:100060000C9485000C94850000000008000201003B
:100070000003040700000000000000000000000072
:10008000250028002B0000000000240027002A0083
:10009000040404040404040402020202020203032E
:1000A0000303030301020408102040800102040836
:1000B00010200102040810206E0411241FBECFEF8F
:1000C000D8E0DEBFCDBF21E0A8E1B1E001C01D92C4
:1000D000AF3BB207E1F711E0A0E0B1E0EEEBF9E0F1
:1000E00002C005900D92A831B107D9F710E0CDE517
:1000F000D0E004C02197FE010E94D704CC35D1077F
:10010000C9F70E9432030C94DD040C94000090E0C7
:10011000FC01EC55FF4F249180579F4FFC018491C7
:10012000882399F090E0880F991FFC01EA57FF4F50
:10013000A591B491FC01E458FF4F859194918FB73C
:10014000F894EC91E22BEC938FBF0895AF92BF929D
:10015000CF92DF92EF92FF920F931F93CF93DF9393
:100160006C017B018B01040F151FEB015E01AE18C2
:10017000BF08C017D10759F06991D601ED91FC91E4
:100180000190F081E02DC6010995892B79F7C50111
:10019000DF91CF911F910F91FF90EF90DF90CF9063
:1001A000BF90AF900895FC01538D448D252F30E012
:1001B000842F90E0821B930B541710F0CF96089574
:1001C00001970895FC01918D828D981761F0A28DA1
:1001D000AE0FBF2FB11D5D968C91928D9F5F9F7367
:1001E000928F90E008958FEF9FEF0895FC01918D1D
:1001F000828D981731F0828DE80FF11D858D90E08A
:1002000008958FEF9FEF08952FB7F89480911E0106
:1002100090911F01A0912001B09121012FBF8093E7
:100220002A0190932B01A0932C01B0932D0182E21F
:1002300091E00E94F60097FF26C02FB7F8948091B6
:100240001E0190911F01A0912001B09121012FBFAB
:1002500040912A0150912B0160912C0170912D0148
:10026000841B950BA60BB70B4091260150912701DB
:10027000609128017091290184179507A607B70797
:10028000B0F28FEF9FEF0895FC01918D228D892FA1
:1002900090E0805C9F4F821B91098F73992708958E
:1002A00082E291E00E94440121E0892B09F420E0E0
:1002B000822F089580E090E0892B29F00E94500160
:1002C00081110C9400000895FC01A48DA80FB92F92
:1002D000B11DA35ABF4F2C91848D90E001968F736E
:1002E0009927848FA689B7892C93A089B1898C918D
:1002F000837080648C93938D848D981306C00288DC
:10030000F389E02D80818F7D80830895EF92FF92A5
:100310000F931F93CF93DF93EC0181E0888F9B8D28
:100320008C8D98131AC0E889F989808185FF15C0E2
:100330009FB7F894EE89FF896083E889F989808105
:100340008370806480839FBF81E090E0DF91CF91D4
:100350001F910F91FF90EF900895F62E0B8D10E0F6
:100360000F5F1F4F0F731127E02E8C8D8E110CC065
:100370000FB607FCFACFE889F989808185FFF5CFB0
:10038000CE010E946401F1CFEB8DEC0FFD2FF11D2A
:10039000E35AFF4FF0829FB7F8940B8FEA89FB89ED
:1003A00080818062CFCFCF93DF93EC01888D88234B
:1003B000B9F0AA89BB89E889F9898C9185FD03C0C8
:1003C000808186FD0DC00FB607FCF7CF8C9185FFAD
:1003D000F2CF808185FFEDCFCE010E946401E9CF8D
:1003E000DF91CF91089590E0FC01E859FF4F2491EF
:1003F000FC01EC55FF4F3491FC01E057FF4FE491B5
:10040000EE23C9F0222339F0233001F1A8F4213082
:1004100019F1223029F1F0E0EE0FFF1FE458FF4FF1
:10042000A591B4918FB7F894EC91611126C03095E5
:100430003E233C938FBF08952730A9F02830C9F0A0
:10044000243049F7809180008F7D03C08091800027
:100450008F7780938000DFCF84B58F7784BDDBCF2B
:1004600084B58F7DFBCF8091B0008F778093B000F3
:10047000D2CF8091B0008F7DF9CF3E2BDACFFC0137
:1004800001900020E9F73197AF01481B590BBC01DF
:1004900082E291E00C94A6008F929F92AF92BF925D
:1004A0000F931F93CF93DF93CDB7DEB7A1970FB60E
:1004B000F894DEBF0FBECDBF19A2423008F44AE067
:1004C0008E010F5D1F4F842E912CB12CA12CA50104
:1004D00094010E94B504E62FB901CA01EA30F4F490
:1004E000E05DD801EE938D01232B242B252B79F78A
:1004F00090E080E0109719F0CD010E943F02A19694
:100500000FB6F894DEBF0FBECDBFDF91CF911F9124
:100510000F91BF90AF909F908F900895E95CE1CFCD
:100520001F920F920FB60F9211242F933F938F9328
:100530009F93AF93BF9380911E0190911F01A09153
:100540002001B091210130911D0123E0230F2D37AF
:1005500058F50196A11DB11D20931D0180931E0128
:1005600090931F01A0932001B09321018091190164
:1005700090911A01A0911B01B0911C010196A11D3F
:10058000B11D8093190190931A01A0931B01B093A0
:100590001C01BF91AF919F918F913F912F910F902F
:1005A0000FBE0F901F90189526E8230F0296A11DED
:1005B000B11DD2CF1F920F920FB60F9211242F931D
:1005C0003F934F935F936F937F938F939F93AF93DB
:1005D000BF93EF93FF9382E291E00E946401FF9149
:1005E000EF91BF91AF919F918F917F916F915F91AB
:1005F0004F913F912F910F900FBE0F901F90189524
:100600001F920F920FB60F9211242F938F939F93E7
:10061000EF93FF93E0913201F09133018081E091FB
:100620003801F091390182FD1BC0908180913B011E
:100630008F5F8F7320913C01821741F0E0913B0165
:10064000F0E0EE5DFE4F958F80933B01FF91EF91BF
:100650009F918F912F910F900FBE0F901F90189523
:100660008081F4CF789484B5826084BD84B5816044
:1006700084BD85B5826085BD85B5816085BD80916D
:100680006E00816080936E001092810080918100E5
:1006900082608093810080918100816080938100DD
:1006A000809180008160809380008091B10084609F
:1006B0008093B1008091B00081608093B000809100
:1006C0007A00846080937A0080917A0082608093BF
:1006D0007A0080917A00816080937A0080917A001C
:1006E000806880937A001092C10088E00E948700A1
:1006F0008DE00E9487008CE00E94870089E00E94C4
:10070000870060E088E00E94F30160E089E00E94D9
:10071000F301E0913201F091330182E08083E091B6
:100720002E01F0912F011082E0913001F091310102
:100730008FEC808310923A01E0913601F0913701FD
:1007400086E08083E0913401F09135018081806101
:100750008083E0913401F09135018081886080834D
:10076000E0913401F0913501808180688083E091CF
:100770003401F091350180818F7D8083C0E0D0E02D
:1007800082E291E00E944401892B09F491C00E9409
:100790000401FC0197FD9EC08D32910521F0C097A8
:1007A0000A9708F090C0C12CD12C760110E0E130FE
:1007B000F105D9F0ED32F10509F48AC0CF01C097F7
:1007C0000A9798F4AAE0B0E0A70196010E949B0462
:1007D0006F01FF0FEE08FF08C60ED71EE81EF91EB8
:1007E00080E3C81AD108E108F10882E291E00E9492
:1007F000E2000E940401FC01C0970A97C0F2E130B8
:10080000F105A9F2112341F0F094E094D094C09442
:10081000C11CD11CE11CF11CC0921801C701B6011A
:100820007727882799274AE00E944C0282E191E0CD
:100830000E943F026091180170E090E080E042E089
:100840000E944C0285E191E00E943F02D090180185
:100850006D2D70E090E080E042E00E944C0285E166
:1008600091E00E943F0261E089E00E94F30160E0B4
:1008700088E00E94F30108E010E0ED2C88E0F82EFB
:100880006E2D61708CE00E94F301E69461E08DE0D2
:100890000E94F30160E08DE00E94F301FA94F110F0
:1008A000EFCF0150110949F761E088E00E94F301A0
:1008B000209709F465CF0E945001882309F460CF86
:1008C0000E9400005DCF82E291E00E94E2005FCFD3
:1008D00011E08BCFC12CD12C76019ECFE2E2F1E06A
:1008E0001382128288EE93E0A0E0B0E084839583C7
:1008F000A683B78384E091E09183808385EC90E0C8
:100900009587848784EC90E09787868780EC90E0D9
:10091000918B808B81EC90E0938B828B82EC90E0CA
:10092000958B848B86EC90E0978B868B118E128E44
:10093000138E148E08950E94A604A59F900DB49F57
:10094000900DA49F800D911D11240895A29FB001C8
:10095000B39FC001A39F700D811D1124911DB29FF3
:10096000700D811D1124911D0895A1E21A2EAA1B5C
:10097000BB1BFD010DC0AA1FBB1FEE1FFF1FA2174F
:10098000B307E407F50720F0A21BB30BE40BF50B4C
:10099000661F771F881F991F1A9469F760957095D5
:1009A000809590959B01AC01BD01CF010895EE0F9C
:0E09B000FF1F0590F491E02D0994F894FFCFFD
:1009BE00000000008601A600D300D3014401E2002E
:0809CE00F6003A20000D0A00BA
:00000001FF
