:020000040000FA
:100000000C945D000C9485000C9485000C94850084
:100010000C9485000C9485000C9485000C9485004C
:100020000C9485000C9485000C9485000C9485003C
:100030000C9485000C9485000C9485000C9485002C
:100040000C9490020C9485000C9400030C94DA023A
:100050000C9485000C9485000C9485000C9485000C
:100060000C9485000C94850000000008000201003B
:100070000003040700000000000000000000000072
:10008000250028002B0000000000240027002A0083
:10009000040404040404040402020202020203032E
:1000A0000303030301020408102040800102040836
:1000B0001020010204081020670411241FBECFEF96
:1000C000D8E0DEBFCDBF21E0A8E1B1E001C01D92C4
:1000D000A03CB207E1F711E0A0E0B1E0E0EBF9E00D
:1000E00002C005900D92A831B107D9F710E0CDE517
:1000F000D0E004C02197FE010E94D004CC35D10786
:10010000C9F70E9432030C94D6040C94000090E0CE
:10011000FC01EC55FF4F249180579F4FFC018491C7
:10012000882399F090E0880F991FFC01EA57FF4F50
:10013000A591B491FC01E458FF4F859194918FB73C
:10014000F894EC91E22BEC938FBF0895AF92BF929D
:10015000CF92DF92EF92FF920F931F93CF93DF9393
:100160006C017B018B01040F151FEB015E01AE18C2
:10017000BF08C017D10759F06991D601ED91FC91E4
:100180000190F081E02DC6010995892B79F7C50111
:10019000DF91CF911F910F91FF90EF90DF90CF9063
:1001A000BF90AF900895FC01538D448D252F30E012
:1001B000842F90E0821B930B541710F0CF96089574
:1001C00001970895FC01918D828D981761F0A28DA1
:1001D000AE0FBF2FB11D5D968C91928D9F5F9F7367
:1001E000928F90E008958FEF9FEF0895FC01918D1D
:1001F000828D981731F0828DE80FF11D858D90E08A
:1002000008958FEF9FEF08952FB7F89480911F0105
:1002100090912001A0912101B09122012FBF8093E4
:100220002B0190932C01A0932D01B0932E0183E21A
:1002300091E00E94F60097FF26C02FB7F8948091B6
:100240001F0190912001A0912101B09122012FBFA7
:1002500040912B0150912C0160912D0170912E0144
:10026000841B950BA60BB70B4091270150912801D9
:100270006091290170912A0184179507A607B70795
:10028000B0F28FEF9FEF0895FC01918D228D892FA1
:1002900090E0805C9F4F821B91098F73992708958E
:1002A00083E291E00E94440121E0892B09F420E0DF
:1002B000822F089580E090E0892B29F00E94500160
:1002C00081110C9400000895FC01A48DA80FB92F92
:1002D000B11DA35ABF4F2C91848D90E001968F736E
:1002E0009927848FA689B7892C93A089B1898C918D
:1002F000837080648C93938D848D981306C00288DC
:10030000F389E02D80818F7D80830895EF92FF92A5
:100310000F931F93CF93DF93EC0181E0888F9B8D28
:100320008C8D98131AC0E889F989808185FF15C0E2
:100330009FB7F894EE89FF896083E889F989808105
:100340008370806480839FBF81E090E0DF91CF91D4
:100350001F910F91FF90EF900895F62E0B8D10E0F6
:100360000F5F1F4F0F731127E02E8C8D8E110CC065
:100370000FB607FCFACFE889F989808185FFF5CFB0
:10038000CE010E946401F1CFEB8DEC0FFD2FF11D2A
:10039000E35AFF4FF0829FB7F8940B8FEA89FB89ED
:1003A00080818062CFCFCF93DF93EC01888D88234B
:1003B000B9F0AA89BB89E889F9898C9185FD03C0C8
:1003C000808186FD0DC00FB607FCF7CF8C9185FFAD
:1003D000F2CF808185FFEDCFCE010E946401E9CF8D
:1003E000DF91CF91089590E0FC01E859FF4F2491EF
:1003F000FC01EC55FF4F3491FC01E057FF4FE491B5
:10040000EE23C9F0222339F0233001F1A8F4213082
:1004100019F1223029F1F0E0EE0FFF1FE458FF4FF1
:10042000A591B4918FB7F894EC91611126C03095E5
:100430003E233C938FBF08952730A9F02830C9F0A0
:10044000243049F7809180008F7D03C08091800027
:100450008F7780938000DFCF84B58F7784BDDBCF2B
:1004600084B58F7DFBCF8091B0008F778093B000F3
:10047000D2CF8091B0008F7DF9CF3E2BDACFFC0137
:1004800001900020E9F73197AF01481B590BBC01DF
:1004900083E291E00C94A6008F929F92AF92BF925C
:1004A0000F931F93CF93DF93CDB7DEB7A1970FB60E
:1004B000F894DEBF0FBECDBF19A2423008F44AE067
:1004C0008E010F5D1F4F842E912CB12CA12CA50104
:1004D00094010E94AE04E62FB901CA01EA30F4F497
:1004E000E05DD801EE938D01232B242B252B79F78A
:1004F00090E080E0109719F0CD010E943F02A19694
:100500000FB6F894DEBF0FBECDBFDF91CF911F9124
:100510000F91BF90AF909F908F900895E95CE1CFCD
:100520001F920F920FB60F9211242F933F938F9328
:100530009F93AF93BF9380911F0190912001A09151
:100540002101B091220130911E0123E0230F2D37AC
:1005500058F50196A11DB11D20931E0180931F0126
:1005600090932001A0932101B093220180911A0160
:1005700090911B01A0911C01B0911D010196A11D3C
:10058000B11D80931A0190931B01A0931C01B0939D
:100590001D01BF91AF919F918F913F912F910F902E
:1005A0000FBE0F901F90189526E8230F0296A11DED
:1005B000B11DD2CF1F920F920FB60F9211242F931D
:1005C0003F934F935F936F937F938F939F93AF93DB
:1005D000BF93EF93FF9383E291E00E946401FF9148
:1005E000EF91BF91AF919F918F917F916F915F91AB
:1005F0004F913F912F910F900FBE0F901F90189524
:100600001F920F920FB60F9211242F938F939F93E7
:10061000EF93FF93E0913301F09134018081E091F9
:100620003901F0913A0182FD1BC0908180913C011B
:100630008F5F8F7320913D01821741F0E0913C0163
:10064000F0E0ED5DFE4F958F80933C01FF91EF91BF
:100650009F918F912F910F900FBE0F901F90189523
:100660008081F4CF789484B5826084BD84B5816044
:1006700084BD85B5826085BD85B5816085BD80916D
:100680006E00816080936E001092810080918100E5
:1006900082608093810080918100816080938100DD
:1006A000809180008160809380008091B10084609F
:1006B0008093B1008091B00081608093B000809100
:1006C0007A00846080937A0080917A0082608093BF
:1006D0007A0080917A00816080937A0080917A001C
:1006E000806880937A001092C10088E00E948700A1
:1006F0008DE00E9487008CE00E94870060E088E027
:100700000E94F301E0913301F091340182E0808393
:10071000E0912F01F09130011082E0913101F091D0
:1007200032018FEC808310923B01E0913701F09110
:10073000380186E08083E0913501F09136018081B7
:1007400080618083E0913501F0913601808188607D
:100750008083E0913501F09136018081806880834B
:10076000E0913501F091360180818F7D8083C0E07A
:10077000D0E083E291E00E944401892B09F46FC02C
:100780000E940401FC0197FD9EC08D32910521F06D
:10079000C0970A9708F090C0C12CD12C760110E0C8
:1007A000E130F105D9F0ED32F10509F48AC0CF014D
:1007B000C0970A9798F4AAE0B0E0A70196010E94BA
:1007C00094046F01FF0FEE08FF08C60ED71EE81E47
:1007D000F91E80E3C81AD108E108F10883E291E02C
:1007E0000E94E2000E940401FC01C0970A97C0F237
:1007F000E130F105A9F2112341F0F094E094D09496
:10080000C094C11CD11CE11CF11C86010D2C000CF4
:10081000EE08FF084AE0C701B601F7FE0DC06DE221
:1008200083E291E00E94860166277727CB016C194D
:100830007D098E099F094AE00E944C0282E191E005
:100840000E943F0242E0C701B6010E944C0285E1CE
:1008500091E00E943F02109319010093180160E09B
:1008600088E00E94F30108E010E0E090180188E0C1
:10087000F82E6E2D61708CE00E94F301E69461E029
:100880008DE00E94F30160E08DE00E94F301FA9494
:10089000F110EFCF0150110941F761E088E00E94AB
:1008A000F301209709F465CF0E945001882309F4D1
:1008B00060CF0E9400005DCF83E291E00E94E200E1
:1008C0005FCF11E08BCFC12CD12C76019ECFE3E21C
:1008D000F1E01382128288EE93E0A0E0B0E084831E
:1008E0009583A683B78384E091E09183808385EC30
:1008F00090E09587848784EC90E09787868780ECEA
:1009000090E0918B808B81EC90E0938B828B82ECDA
:1009100090E0958B848B86EC90E0978B868B118E84
:10092000128E138E148E08950E949F04A59F900D21
:10093000B49F900DA49F800D911D11240895A29F36
:10094000B001B39FC001A39F700D811D1124911DA3
:10095000B29F700D811D1124911D0895A1E21A2EE0
:10096000AA1BBB1BFD010DC0AA1FBB1FEE1FFF1F53
:10097000A217B307E407F50720F0A21BB30BE40BA3
:10098000F50B661F771F881F991F1A9469F76095EA
:100990007095809590959B01AC01BD01CF010895A4
:1009A000EE0FFF1F0590F491E02D0994F894FFCF0E
:1009B000000000008601A600D300D3014401E2003C
:0809C000F6003A20000D0A00C8
:107E0000112484B714BE81FFF0D085E080938100F7
:107E100082E08093C00088E18093C10086E0809377
:107E2000C20080E18093C4008EE0C9D0259A86E02C
:107E300020E33CEF91E0309385002093840096BBD3
:107E4000B09BFECF1D9AA8958150A9F7CC24DD24C4
:107E500088248394B5E0AB2EA1E19A2EF3E0BF2EE7
:107E6000A2D0813461F49FD0082FAFD0023811F036
:107E7000013811F484E001C083E08DD089C08234E0
:107E800011F484E103C0853419F485E0A6D080C0E4
:107E9000853579F488D0E82EFF2485D0082F10E0AE
:107EA000102F00270E291F29000F111F8ED06801E7
:107EB0006FC0863521F484E090D080E0DECF843638
:107EC00009F040C070D06FD0082F6DD080E0C81688
:107ED00080E7D80618F4F601B7BEE895C0E0D1E017
:107EE00062D089930C17E1F7F0E0CF16F0E7DF06D8
:107EF00018F0F601B7BEE89568D007B600FCFDCFD4
:107F0000A601A0E0B1E02C9130E011968C91119780
:107F100090E0982F8827822B932B1296FA010C0160
:107F200087BEE89511244E5F5F4FF1E0A038BF0790
:107F300051F7F601A7BEE89507B600FCFDCF97BE46
:107F4000E89526C08437B1F42ED02DD0F82E2BD052
:107F50003CD0F601EF2C8F010F5F1F4F84911BD097
:107F6000EA94F801C1F70894C11CD11CFA94CF0C13
:107F7000D11C0EC0853739F428D08EE10CD085E9AC
:107F80000AD08FE07ACF813511F488E018D01DD067
:107F900080E101D065CF982F8091C00085FFFCCF94
:107FA0009093C60008958091C00087FFFCCF809118
:107FB000C00084FD01C0A8958091C6000895E0E648
:107FC000F0E098E1908380830895EDDF803219F02E
:107FD00088E0F5DFFFCF84E1DECF1F93182FE3DFCA
:107FE0001150E9F7F2DF1F91089580E0E8DFEE27F6
:047FF000FF270994CA
:027FFE00040479
:00000001FF
