:020000040000FA
:100000000C9462000C948A000C948A000C948A0070
:100010000C948A000C948A000C948A000C948A0038
:100020000C948A000C948A000C948A000C948A0028
:100030000C948A000C948A000C948A000C948A0018
:100040000C94F8020C948A000C9468030C944203FC
:100050000C948A000C948A000C948A000C948A00F8
:100060000C948A000C948A000000000024002700F1
:100070002A0000000000250028002B0000000000DE
:1000800023002600290004040404040404040202DA
:100090000202020203030303030301020408102007
:1000A0004080010204081020010204081020000012
:1000B0000008000201000003040700000000000027
:1000C00000005F0511241FBECFEFD8E0DEBFCDBF1B
:1000D00021E0A4E4B1E001C01D92AF3EB207E1F718
:1000E00011E0A0E0B1E0E0EAFBE002C005900D9273
:1000F000A434B107D9F710E0C2E6D0E004C02197DC
:10010000FE010E94C805C136D107C9F70E949A03B3
:100110000C94CE050C940000AF92BF92CF92DF9268
:10012000EF92FF920F931F93CF93DF936C017B01AC
:100130008B01040F151FEB015E01AE18BF08C0173D
:10014000D10759F06991D601ED91FC910190F081B0
:10015000E02DC6010995892B79F7C501DF91CF9173
:100160001F910F91FF90EF90DF90CF90BF90AF90D5
:100170000895FC01538D448D252F30E0842F90E0AD
:10018000821B930B541710F0CF9608950197089592
:10019000FC01918D828D981761F0A28DAE0FBF2F5B
:1001A000B11D5D968C91928D9F5F9F73928F90E0B1
:1001B00008958FEF9FEF0895FC01918D828D981720
:1001C00031F0828DE80FF11D858D90E008958FEF5D
:1001D0009FEF08952FB7F89480914E0190914F01B1
:1001E000A0915001B09151012FBF80935A0190937B
:1001F0005B01A0935C01B0935D0182E591E00E94F8
:10020000DC0097FF26C02FB7F89480914E019091A3
:100210004F01A0915001B09151012FBF40915A015F
:1002200050915B0160915C0170915D01841B950BA5
:10023000A60BB70B409156015091570160915801A0
:100240007091590184179507A607B707B0F28FEF91
:100250009FEF0895FC01918D228D892F90E0805CA5
:100260009F4F821B91098F739927089582E591E032
:100270000E942A0121E0892B09F420E0822F0895B1
:1002800080E090E0892B29F00E94360181110C94C6
:1002900000000895FC01A48DA80FB92FB11DA35A29
:1002A000BF4F2C91848D90E001968F739927848F96
:1002B000A689B7892C93A089B1898C9183708064B9
:1002C0008C93938D848D981306C00288F389E02D5A
:1002D00080818F7D80830895EF92FF920F931F930B
:1002E000CF93DF93EC0181E0888F9B8D8C8D9813E9
:1002F0001AC0E889F989808185FF15C09FB7F894F5
:10030000EE89FF896083E889F98980818370806440
:1003100080839FBF81E090E0DF91CF911F910F918B
:10032000FF90EF900895F62E0B8D10E00F5F1F4F9A
:100330000F731127E02E8C8D8E110CC00FB607FCA9
:10034000FACFE889F989808185FFF5CFCE010E9437
:100350004A01F1CFEB8DEC0FFD2FF11DE35AFF4F5A
:10036000F0829FB7F8940B8FEA89FB8980818062C5
:10037000CFCFCF93DF93EC01888D8823B9F0AA8982
:10038000BB89E889F9898C9185FD03C0808186FD50
:100390000DC00FB607FCF7CF8C9185FFF2CF80819F
:1003A00085FFEDCFCE010E944A01E9CFDF91CF91C9
:1003B0000895833081F028F4813099F08230A9F0DB
:1003C00008958730A9F08830C9F08430B1F4809165
:1003D00080008F7D03C0809180008F7780938000A4
:1003E000089584B58F7784BD089584B58F7DFBCF44
:1003F0008091B0008F778093B00008958091B00015
:100400008F7DF9CFCF93DF93282F30E0F901E255AC
:10041000FF4F8491F901E656FF4FD491F901EA5755
:10042000FF4FC491CC23A1F081110E94D901EC2F80
:10043000F0E0EE0FFF1FE458FF4FA591B491EC914F
:10044000ED2381E090E009F480E0DF91CF91089501
:1004500080E090E0FACF1F93CF93DF93282F30E016
:10046000F901E255FF4F8491F901E656FF4FD4910F
:10047000F901EA57FF4FC491CC23A9F0162F81113F
:100480000E94D901EC2FF0E0EE0FFF1FEE58FF4F56
:10049000A591B4918FB7F894EC91111108C0D09543
:1004A000DE23DC938FBFDF91CF911F910895DE2B68
:1004B000F8CFCF93DF9390E0FC01E656FF4F2491F5
:1004C0008A579F4FFC0184918823D1F090E0880FD8
:1004D000991FFC01E859FF4FA591B491FC01EE581A
:1004E000FF4FC591D491623071F49FB7F8943C915D
:1004F000822F809583238C93E8812E2B28839FBFA6
:10050000DF91CF9108958FB7F894EC912E2B2C9317
:100510008FBFF6CF0F931F93CF93DF93082F162F24
:10052000D42FC8E06D2F6170802F0E942B02D695CA
:1005300061E0812F0E942B0260E0812F0E942B023C
:10054000C15081F7DF91CF911F910F910895FC0168
:1005500001900020E9F73197AF01481B590BBC010E
:1005600082E591E00C948C008F929F92AF92BF92A3
:100570000F931F93CF93DF93CDB7DEB7A1970FB63D
:10058000F894DEBF0FBECDBF19A2423008F44AE096
:100590008E010F5D1F4F842E912CB12CA12CA50133
:1005A00094010E94A605E62FB901CA01EA30F4F4CD
:1005B000E05DD801EE938D01232B242B252B79F7B9
:1005C00090E080E0109719F0CD010E94A702A1965B
:1005D0000FB6F894DEBF0FBECDBFDF91CF911F9154
:1005E0000F91BF90AF909F908F900895E95CE1CFFD
:1005F0001F920F920FB60F9211242F933F938F9358
:100600009F93AF93BF9380914E0190914F01A09122
:100610005001B091510130914D0123E0230F2D374E
:1006200058F50196A11DB11D20934D0180934E01F7
:1006300090934F01A0935001B093510180914901D3
:1006400090914A01A0914B01B0914C010196A11DDE
:10065000B11D8093490190934A01A0934B01B0933F
:100660004C01BF91AF919F918F913F912F910F902E
:100670000FBE0F901F90189526E8230F0296A11D1C
:10068000B11DD2CF1F920F920FB60F9211242F934C
:100690003F934F935F936F937F938F939F93AF930A
:1006A000BF93EF93FF9382E591E00E944A01FF918F
:1006B000EF91BF91AF919F918F917F916F915F91DA
:1006C0004F913F912F910F900FBE0F901F90189553
:1006D0001F920F920FB60F9211242F938F939F9317
:1006E000EF93FF93E0916201F09163018081E091CB
:1006F0006801F091690182FD1BC0908180916B01BE
:100700008F5F8F7320916C01821741F0E0916B0134
:10071000F0E0EE5AFE4F958F80936B01FF91EF91C1
:100720009F918F912F910F900FBE0F901F90189552
:100730008081F4CF789484B5826084BD84B5816073
:1007400084BD85B5826085BD85B5816085BD80919C
:100750006E00816080936E00109281008091810014
:10076000826080938100809181008160809381000C
:10077000809180008160809380008091B1008460CE
:100780008093B1008091B00081608093B00080912F
:100790007A00846080937A0080917A0082608093EE
:1007A0007A0080917A00816080937A0080917A004B
:1007B000806880937A001092C10061E088E00E9416
:1007C000590261E08DE00E94590261E08CE00E94D4
:1007D000590261E083E00E94590261E084E00E94D6
:1007E000590261E082E00E94590261E089E00E94C2
:1007F000590262E087E00E94590287E00E940202EB
:10080000909348018093470160E088E00E942B02AA
:1008100060E089E00E942B02E0916201F0916301A7
:1008200082E08083E0915E01F0915F011082E091AF
:100830006001F09161018FEC808310926A01E09178
:100840006601F091670186E08083E0916401F09198
:100850006501808180618083E0916401F091650190
:10086000808188608083E0916401F09165018081DE
:1008700080688083E0916401F091650180818F7DC3
:100880008083C0E0D0E087E00E9402028C0180916A
:100890004701909148010817190709F458C001153C
:1008A000110509F054C08CE191E00E94A7028091EB
:1008B0004501909146018930910509F0EFC01092F1
:1008C000460110924501C0904501D09046010D2C83
:1008D000000CEE08FF084AE0C701B601F7FE0DC0A4
:1008E0006DE282E591E00E946C0166277727CB01DB
:1008F0006C197D098E099F094AE00E94B40288E2C2
:1009000091E00E94A702E0904501F09046018BE241
:1009100091E00E94A7026E2D70E090E080E04AE036
:100920000E94B40288E291E00E94A70260E083E0A6
:100930000E942B02F701FF27EE5EFE4F408164E02C
:1009400082E00E948A0261E083E00E942B02109301
:1009500048010093470182E591E00E942A011816A0
:1009600019060CF090C00E94EA00FC0197FDA3C09C
:100970008D32910521F0C0970A9708F095C0C12CDF
:10098000D12C760110E0E130F105D9F0ED32F1051E
:1009900009F48FC0CF01C0970A9798F4AAE0B0E09D
:1009A000A70196010E948C056F01FF0FEE08FF085A
:1009B000C60ED71EE81EF91E80E3C81AD108E1084A
:1009C000F10882E591E00E94C8000E94EA00FC0163
:1009D000C0970A97C0F2E130F105A9F2112341F066
:1009E000F094E094D094C094C11CD11CE11CF11C83
:1009F000C092440184E391E00E94A70288E291E062
:100A00000E94A7026091440170E090E080E04AE01B
:100A10000E94B40280E491E00E94A7026091440128
:100A200070E090E080E042E00E94B40288E291E051
:100A30000E94A702F0904401FF2029F18BE391E08E
:100A40000E94A7026F2D70E090E080E042E00E94DB
:100A5000B40288E291E00E94A70261E089E00E946E
:100A60002B0260E088E00E942B0208E010E04F2D8E
:100A70006DE08CE00E948A0201501109C1F761E02B
:100A800088E00E942B02209709F4FDCE0E943601D7
:100A9000882309F4F8CE0E940000F5CE01969093C9
:100AA0004601809345010FCF82E591E00E94C80086
:100AB0005ACF11E086CFC12CD12C760199CFE2E537
:100AC000F1E01382128288EE93E0A0E0B0E084832C
:100AD0009583A683B78384E091E09183808385EC3E
:100AE00090E09587848784EC90E09787868780ECF8
:100AF00090E0918B808B81EC90E0938B828B82ECE9
:100B000090E0958B848B86EC90E0978B868B118E92
:100B1000128E138E148E08950E949705A59F900D36
:100B2000B49F900DA49F800D911D11240895A29F44
:100B3000B001B39FC001A39F700D811D1124911DB1
:100B4000B29F700D811D1124911D0895A1E21A2EEE
:100B5000AA1BBB1BFD010DC0AA1FBB1FEE1FFF1F61
:100B6000A217B307E407F50720F0A21BB30BE40BB1
:100B7000F50B661F771F881F991F1A9469F76095F8
:100B80007095809590959B01AC01BD01CF010895B2
:100B9000EE0FFF1F0590F491E02D0994F894FFCF1C
:100BA000000000006C018C00B900B9012A01C800E6
:100BB000DC00FC60DAF266B6BEE0FEE650726573F9
:100BC000696F6E61742120000D0A0065736372699C
:100BD000753A2000726562757421006D6F756D65E0
:040BE0003A200000B7
:107E0000112484B714BE81FFF0D085E080938100F7
:107E100082E08093C00088E18093C10086E0809377
:107E2000C20080E18093C4008EE0C9D0259A86E02C
:107E300020E33CEF91E0309385002093840096BBD3
:107E4000B09BFECF1D9AA8958150A9F7CC24DD24C4
:107E500088248394B5E0AB2EA1E19A2EF3E0BF2EE7
:107E6000A2D0813461F49FD0082FAFD0023811F036
:107E7000013811F484E001C083E08DD089C08234E0
:107E800011F484E103C0853419F485E0A6D080C0E4
:107E9000853579F488D0E82EFF2485D0082F10E0AE
:107EA000102F00270E291F29000F111F8ED06801E7
:107EB0006FC0863521F484E090D080E0DECF843638
:107EC00009F040C070D06FD0082F6DD080E0C81688
:107ED00080E7D80618F4F601B7BEE895C0E0D1E017
:107EE00062D089930C17E1F7F0E0CF16F0E7DF06D8
:107EF00018F0F601B7BEE89568D007B600FCFDCFD4
:107F0000A601A0E0B1E02C9130E011968C91119780
:107F100090E0982F8827822B932B1296FA010C0160
:107F200087BEE89511244E5F5F4FF1E0A038BF0790
:107F300051F7F601A7BEE89507B600FCFDCF97BE46
:107F4000E89526C08437B1F42ED02DD0F82E2BD052
:107F50003CD0F601EF2C8F010F5F1F4F84911BD097
:107F6000EA94F801C1F70894C11CD11CFA94CF0C13
:107F7000D11C0EC0853739F428D08EE10CD085E9AC
:107F80000AD08FE07ACF813511F488E018D01DD067
:107F900080E101D065CF982F8091C00085FFFCCF94
:107FA0009093C60008958091C00087FFFCCF809118
:107FB000C00084FD01C0A8958091C6000895E0E648
:107FC000F0E098E1908380830895EDDF803219F02E
:107FD00088E0F5DFFFCF84E1DECF1F93182FE3DFCA
:107FE0001150E9F7F2DF1F91089580E0E8DFEE27F6
:047FF000FF270994CA
:027FFE00040479
:00000001FF
